{
  "_format": "hh-sol-artifact-1",
  "contractName": "PostApocalypticItem",
  "sourceName": "contracts/PostApocalypticItem.sol",
  "abi": [
    {
      "inputs": [],
      "stateMutability": "nonpayable",
      "type": "constructor"
    },
    {
      "anonymous": false,
      "inputs": [
        {
          "indexed": true,
          "internalType": "address",
          "name": "owner",
          "type": "address"
        },
        {
          "indexed": true,
          "internalType": "address",
          "name": "approved",
          "type": "address"
        },
        {
          "indexed": true,
          "internalType": "uint256",
          "name": "tokenId",
          "type": "uint256"
        }
      ],
      "name": "Approval",
      "type": "event"
    },
    {
      "anonymous": false,
      "inputs": [
        {
          "indexed": true,
          "internalType": "address",
          "name": "owner",
          "type": "address"
        },
        {
          "indexed": true,
          "internalType": "address",
          "name": "operator",
          "type": "address"
        },
        {
          "indexed": false,
          "internalType": "bool",
          "name": "approved",
          "type": "bool"
        }
      ],
      "name": "ApprovalForAll",
      "type": "event"
    },
    {
      "anonymous": false,
      "inputs": [
        {
          "indexed": true,
          "internalType": "address",
          "name": "previousOwner",
          "type": "address"
        },
        {
          "indexed": true,
          "internalType": "address",
          "name": "newOwner",
          "type": "address"
        }
      ],
      "name": "OwnershipTransferred",
      "type": "event"
    },
    {
      "anonymous": false,
      "inputs": [
        {
          "indexed": true,
          "internalType": "address",
          "name": "from",
          "type": "address"
        },
        {
          "indexed": true,
          "internalType": "address",
          "name": "to",
          "type": "address"
        },
        {
          "indexed": true,
          "internalType": "uint256",
          "name": "tokenId",
          "type": "uint256"
        }
      ],
      "name": "Transfer",
      "type": "event"
    },
    {
      "inputs": [
        {
          "internalType": "address",
          "name": "to",
          "type": "address"
        },
        {
          "internalType": "uint256",
          "name": "tokenId",
          "type": "uint256"
        }
      ],
      "name": "approve",
      "outputs": [],
      "stateMutability": "nonpayable",
      "type": "function"
    },
    {
      "inputs": [
        {
          "internalType": "address",
          "name": "owner",
          "type": "address"
        }
      ],
      "name": "balanceOf",
      "outputs": [
        {
          "internalType": "uint256",
          "name": "",
          "type": "uint256"
        }
      ],
      "stateMutability": "view",
      "type": "function"
    },
    {
      "inputs": [],
      "name": "contractURI",
      "outputs": [
        {
          "internalType": "string",
          "name": "",
          "type": "string"
        }
      ],
      "stateMutability": "pure",
      "type": "function"
    },
    {
      "inputs": [
        {
          "internalType": "uint256",
          "name": "tokenId",
          "type": "uint256"
        }
      ],
      "name": "getApproved",
      "outputs": [
        {
          "internalType": "address",
          "name": "",
          "type": "address"
        }
      ],
      "stateMutability": "view",
      "type": "function"
    },
    {
      "inputs": [
        {
          "internalType": "address",
          "name": "owner",
          "type": "address"
        },
        {
          "internalType": "address",
          "name": "operator",
          "type": "address"
        }
      ],
      "name": "isApprovedForAll",
      "outputs": [
        {
          "internalType": "bool",
          "name": "",
          "type": "bool"
        }
      ],
      "stateMutability": "view",
      "type": "function"
    },
    {
      "inputs": [
        {
          "internalType": "address",
          "name": "player",
          "type": "address"
        },
        {
          "internalType": "string",
          "name": "tokenURI",
          "type": "string"
        }
      ],
      "name": "mintItem",
      "outputs": [
        {
          "internalType": "uint256",
          "name": "",
          "type": "uint256"
        }
      ],
      "stateMutability": "payable",
      "type": "function"
    },
    {
      "inputs": [],
      "name": "name",
      "outputs": [
        {
          "internalType": "string",
          "name": "",
          "type": "string"
        }
      ],
      "stateMutability": "view",
      "type": "function"
    },
    {
      "inputs": [],
      "name": "owner",
      "outputs": [
        {
          "internalType": "address",
          "name": "",
          "type": "address"
        }
      ],
      "stateMutability": "view",
      "type": "function"
    },
    {
      "inputs": [
        {
          "internalType": "uint256",
          "name": "tokenId",
          "type": "uint256"
        }
      ],
      "name": "ownerOf",
      "outputs": [
        {
          "internalType": "address",
          "name": "",
          "type": "address"
        }
      ],
      "stateMutability": "view",
      "type": "function"
    },
    {
      "inputs": [],
      "name": "renounceOwnership",
      "outputs": [],
      "stateMutability": "nonpayable",
      "type": "function"
    },
    {
      "inputs": [
        {
          "internalType": "address",
          "name": "from",
          "type": "address"
        },
        {
          "internalType": "address",
          "name": "to",
          "type": "address"
        },
        {
          "internalType": "uint256",
          "name": "tokenId",
          "type": "uint256"
        }
      ],
      "name": "safeTransferFrom",
      "outputs": [],
      "stateMutability": "nonpayable",
      "type": "function"
    },
    {
      "inputs": [
        {
          "internalType": "address",
          "name": "from",
          "type": "address"
        },
        {
          "internalType": "address",
          "name": "to",
          "type": "address"
        },
        {
          "internalType": "uint256",
          "name": "tokenId",
          "type": "uint256"
        },
        {
          "internalType": "bytes",
          "name": "_data",
          "type": "bytes"
        }
      ],
      "name": "safeTransferFrom",
      "outputs": [],
      "stateMutability": "nonpayable",
      "type": "function"
    },
    {
      "inputs": [
        {
          "internalType": "address",
          "name": "operator",
          "type": "address"
        },
        {
          "internalType": "bool",
          "name": "approved",
          "type": "bool"
        }
      ],
      "name": "setApprovalForAll",
      "outputs": [],
      "stateMutability": "nonpayable",
      "type": "function"
    },
    {
      "inputs": [
        {
          "internalType": "bytes4",
          "name": "interfaceId",
          "type": "bytes4"
        }
      ],
      "name": "supportsInterface",
      "outputs": [
        {
          "internalType": "bool",
          "name": "",
          "type": "bool"
        }
      ],
      "stateMutability": "view",
      "type": "function"
    },
    {
      "inputs": [],
      "name": "symbol",
      "outputs": [
        {
          "internalType": "string",
          "name": "",
          "type": "string"
        }
      ],
      "stateMutability": "view",
      "type": "function"
    },
    {
      "inputs": [
        {
          "internalType": "uint256",
          "name": "tokenId",
          "type": "uint256"
        }
      ],
      "name": "tokenURI",
      "outputs": [
        {
          "internalType": "string",
          "name": "",
          "type": "string"
        }
      ],
      "stateMutability": "view",
      "type": "function"
    },
    {
      "inputs": [],
      "name": "totalSupply",
      "outputs": [
        {
          "internalType": "uint256",
          "name": "",
          "type": "uint256"
        }
      ],
      "stateMutability": "view",
      "type": "function"
    },
    {
      "inputs": [
        {
          "internalType": "address",
          "name": "from",
          "type": "address"
        },
        {
          "internalType": "address",
          "name": "to",
          "type": "address"
        },
        {
          "internalType": "uint256",
          "name": "tokenId",
          "type": "uint256"
        }
      ],
      "name": "transferFrom",
      "outputs": [],
      "stateMutability": "nonpayable",
      "type": "function"
    },
    {
      "inputs": [
        {
          "internalType": "address",
          "name": "newOwner",
          "type": "address"
        }
      ],
      "name": "transferOwnership",
      "outputs": [],
      "stateMutability": "nonpayable",
      "type": "function"
    }
  ],
  "bytecode": "0x60806040523480156200001157600080fd5b50604080518082018252601081526f506f73742d41706f63616c797074696360801b602080830191825283518085019094526002845261504160f01b9084015281519192916200006491600091620000f3565b5080516200007a906001906020840190620000f3565b50505062000097620000916200009d60201b60201c565b620000a1565b620001d6565b3390565b600780546001600160a01b038381166001600160a01b0319831681179093556040519116919082907f8be0079c531659141344cd1fd0a4f28419497f9722a3daafe3b4186f6b6457e090600090a35050565b828054620001019062000199565b90600052602060002090601f01602090048101928262000125576000855562000170565b82601f106200014057805160ff191683800117855562000170565b8280016001018555821562000170579182015b828111156200017057825182559160200191906001019062000153565b506200017e92915062000182565b5090565b5b808211156200017e576000815560010162000183565b600281046001821680620001ae57607f821691505b60208210811415620001d057634e487b7160e01b600052602260045260246000fd5b50919050565b611b9f80620001e66000396000f3fe6080604052600436106101145760003560e01c806370a08231116100a0578063b88d4fde11610064578063b88d4fde146102d4578063c87b56dd146102f4578063e8a3d48514610314578063e985e9c514610329578063f2fde38b1461034957610114565b806370a0823114610255578063715018a6146102755780638da5cb5b1461028a57806395d89b411461029f578063a22cb465146102b457610114565b8063110bcd45116100e7578063110bcd45146101c057806318160ddd146101e057806323b872dd146101f557806342842e0e146102155780636352211e1461023557610114565b806301ffc9a71461011957806306fdde031461014f578063081812fc14610171578063095ea7b31461019e575b600080fd5b34801561012557600080fd5b50610139610134366004611396565b610369565b6040516101469190611492565b60405180910390f35b34801561015b57600080fd5b506101646103b1565b604051610146919061149d565b34801561017d57600080fd5b5061019161018c3660046113ce565b610443565b6040516101469190611441565b3480156101aa57600080fd5b506101be6101b936600461136d565b61048f565b005b6101d36101ce36600461130e565b610527565b60405161014691906119ec565b3480156101ec57600080fd5b506101d36105c6565b34801561020157600080fd5b506101be610210366004611220565b6105d7565b34801561022157600080fd5b506101be610230366004611220565b61060f565b34801561024157600080fd5b506101916102503660046113ce565b61062a565b34801561026157600080fd5b506101d36102703660046111d4565b61065f565b34801561028157600080fd5b506101be6106a3565b34801561029657600080fd5b506101916106ee565b3480156102ab57600080fd5b506101646106fd565b3480156102c057600080fd5b506101be6102cf3660046112d4565b61070c565b3480156102e057600080fd5b506101be6102ef36600461125b565b610722565b34801561030057600080fd5b5061016461030f3660046113ce565b610761565b34801561032057600080fd5b5061016461087a565b34801561033557600080fd5b506101396103443660046111ee565b61089a565b34801561035557600080fd5b506101be6103643660046111d4565b6108c8565b60006001600160e01b031982166380ac58cd60e01b148061039a57506001600160e01b03198216635b5e139f60e01b145b806103a957506103a982610939565b90505b919050565b6060600080546103c090611a64565b80601f01602080910402602001604051908101604052809291908181526020018280546103ec90611a64565b80156104395780601f1061040e57610100808354040283529160200191610439565b820191906000526020600020905b81548152906001019060200180831161041c57829003601f168201915b5050505050905090565b600061044e82610952565b6104735760405162461bcd60e51b815260040161046a9061180a565b60405180910390fd5b506000908152600460205260409020546001600160a01b031690565b600061049a8261062a565b9050806001600160a01b0316836001600160a01b031614156104ce5760405162461bcd60e51b815260040161046a90611923565b806001600160a01b03166104e061096f565b6001600160a01b031614806104fc57506104fc8161034461096f565b6105185760405162461bcd60e51b815260040161046a90611646565b6105228383610973565b505050565b600066b1a2bc2ec50000348111156105515760405162461bcd60e51b815260040161046a906119b5565b6105596106ee565b6001600160a01b03166108fc349081150290604051600060405180830381858888f19350505050158015610591573d6000803e3d6000fd5b5061059c60086109e1565b60006105a860086109ea565b90506105b485826109ee565b6105be8185610acd565b949350505050565b60006105d260086109ea565b905090565b6105e86105e261096f565b82610b11565b6106045760405162461bcd60e51b815260040161046a90611964565b610522838383610b8e565b61052283838360405180602001604052806000815250610722565b6000818152600260205260408120546001600160a01b0316806103a95760405162461bcd60e51b815260040161046a906116ed565b60006001600160a01b0382166106875760405162461bcd60e51b815260040161046a906116a3565b506001600160a01b031660009081526003602052604090205490565b6106ab61096f565b6001600160a01b03166106bc6106ee565b6001600160a01b0316146106e25760405162461bcd60e51b815260040161046a90611856565b6106ec6000610cbb565b565b6007546001600160a01b031690565b6060600180546103c090611a64565b61071e61071761096f565b8383610d0d565b5050565b61073361072d61096f565b83610b11565b61074f5760405162461bcd60e51b815260040161046a90611964565b61075b84848484610db0565b50505050565b606061076c82610952565b6107885760405162461bcd60e51b815260040161046a906117b9565b600082815260066020526040812080546107a190611a64565b80601f01602080910402602001604051908101604052809291908181526020018280546107cd90611a64565b801561081a5780601f106107ef5761010080835404028352916020019161081a565b820191906000526020600020905b8154815290600101906020018083116107fd57829003601f168201915b50505050509050600061082b610de3565b905080516000141561083f575090506103ac565b815115610871578082604051602001610859929190611412565b604051602081830303815290604052925050506103ac565b6105be84610df5565b6060604051806080016040528060438152602001611b2760439139905090565b6001600160a01b03918216600090815260056020908152604080832093909416825291909152205460ff1690565b6108d061096f565b6001600160a01b03166108e16106ee565b6001600160a01b0316146109075760405162461bcd60e51b815260040161046a90611856565b6001600160a01b03811661092d5760405162461bcd60e51b815260040161046a90611502565b61093681610cbb565b50565b6001600160e01b031981166301ffc9a760e01b14919050565b6000908152600260205260409020546001600160a01b0316151590565b3390565b600081815260046020526040902080546001600160a01b0319166001600160a01b03841690811790915581906109a88261062a565b6001600160a01b03167f8c5be1e5ebec7d5bd14f71427d1e84f3dd0314c0f7b2291e5b200ac8c7c3b92560405160405180910390a45050565b80546001019055565b5490565b6001600160a01b038216610a145760405162461bcd60e51b815260040161046a90611784565b610a1d81610952565b15610a3a5760405162461bcd60e51b815260040161046a90611548565b610a4660008383610522565b6001600160a01b0382166000908152600360205260408120805460019290610a6f9084906119f5565b909155505060008181526002602052604080822080546001600160a01b0319166001600160a01b03861690811790915590518392907fddf252ad1be2c89b69c2b068fc378daa952ba7f163c4a11628f55a4df523b3ef908290a45050565b610ad682610952565b610af25760405162461bcd60e51b815260040161046a90611736565b60008281526006602090815260409091208251610522928401906110b4565b6000610b1c82610952565b610b385760405162461bcd60e51b815260040161046a906115fa565b6000610b438361062a565b9050806001600160a01b0316846001600160a01b03161480610b7e5750836001600160a01b0316610b7384610443565b6001600160a01b0316145b806105be57506105be818561089a565b826001600160a01b0316610ba18261062a565b6001600160a01b031614610bc75760405162461bcd60e51b815260040161046a9061188b565b6001600160a01b038216610bed5760405162461bcd60e51b815260040161046a9061157f565b610bf8838383610522565b610c03600082610973565b6001600160a01b0383166000908152600360205260408120805460019290610c2c908490611a21565b90915550506001600160a01b0382166000908152600360205260408120805460019290610c5a9084906119f5565b909155505060008181526002602052604080822080546001600160a01b0319166001600160a01b0386811691821790925591518493918716917fddf252ad1be2c89b69c2b068fc378daa952ba7f163c4a11628f55a4df523b3ef91a4505050565b600780546001600160a01b038381166001600160a01b0319831681179093556040519116919082907f8be0079c531659141344cd1fd0a4f28419497f9722a3daafe3b4186f6b6457e090600090a35050565b816001600160a01b0316836001600160a01b03161415610d3f5760405162461bcd60e51b815260040161046a906115c3565b6001600160a01b0383811660008181526005602090815260408083209487168084529490915290819020805460ff1916851515179055517f17307eab39ab6107e8899845ad3d59bd9653f200f220920489ca2b5937696c3190610da3908590611492565b60405180910390a3505050565b610dbb848484610b8e565b610dc784848484610e78565b61075b5760405162461bcd60e51b815260040161046a906114b0565b60408051602081019091526000815290565b6060610e0082610952565b610e1c5760405162461bcd60e51b815260040161046a906118d4565b6000610e26610de3565b90506000815111610e465760405180602001604052806000815250610e71565b80610e5084610f93565b604051602001610e61929190611412565b6040516020818303038152906040525b9392505050565b6000610e8c846001600160a01b03166110ae565b15610f8857836001600160a01b031663150b7a02610ea861096f565b8786866040518563ffffffff1660e01b8152600401610eca9493929190611455565b602060405180830381600087803b158015610ee457600080fd5b505af1925050508015610f14575060408051601f3d908101601f19168201909252610f11918101906113b2565b60015b610f6e573d808015610f42576040519150601f19603f3d011682016040523d82523d6000602084013e610f47565b606091505b508051610f665760405162461bcd60e51b815260040161046a906114b0565b805181602001fd5b6001600160e01b031916630a85bd0160e11b1490506105be565b506001949350505050565b606081610fb857506040805180820190915260018152600360fc1b60208201526103ac565b8160005b8115610fe25780610fcc81611a9f565b9150610fdb9050600a83611a0d565b9150610fbc565b60008167ffffffffffffffff81111561100b57634e487b7160e01b600052604160045260246000fd5b6040519080825280601f01601f191660200182016040528015611035576020820181803683370190505b5090505b84156105be5761104a600183611a21565b9150611057600a86611aba565b6110629060306119f5565b60f81b81838151811061108557634e487b7160e01b600052603260045260246000fd5b60200101906001600160f81b031916908160001a9053506110a7600a86611a0d565b9450611039565b3b151590565b8280546110c090611a64565b90600052602060002090601f0160209004810192826110e25760008555611128565b82601f106110fb57805160ff1916838001178555611128565b82800160010185558215611128579182015b8281111561112857825182559160200191906001019061110d565b50611134929150611138565b5090565b5b808211156111345760008155600101611139565b600067ffffffffffffffff8084111561116857611168611afa565b604051601f8501601f19168101602001828111828210171561118c5761118c611afa565b6040528481529150818385018610156111a457600080fd5b8484602083013760006020868301015250509392505050565b80356001600160a01b03811681146103ac57600080fd5b6000602082840312156111e5578081fd5b610e71826111bd565b60008060408385031215611200578081fd5b611209836111bd565b9150611217602084016111bd565b90509250929050565b600080600060608486031215611234578081fd5b61123d846111bd565b925061124b602085016111bd565b9150604084013590509250925092565b60008060008060808587031215611270578081fd5b611279856111bd565b9350611287602086016111bd565b925060408501359150606085013567ffffffffffffffff8111156112a9578182fd5b8501601f810187136112b9578182fd5b6112c88782356020840161114d565b91505092959194509250565b600080604083850312156112e6578182fd5b6112ef836111bd565b915060208301358015158114611303578182fd5b809150509250929050565b60008060408385031215611320578182fd5b611329836111bd565b9150602083013567ffffffffffffffff811115611344578182fd5b8301601f81018513611354578182fd5b6113638582356020840161114d565b9150509250929050565b6000806040838503121561137f578182fd5b611388836111bd565b946020939093013593505050565b6000602082840312156113a7578081fd5b8135610e7181611b10565b6000602082840312156113c3578081fd5b8151610e7181611b10565b6000602082840312156113df578081fd5b5035919050565b600081518084526113fe816020860160208601611a38565b601f01601f19169290920160200192915050565b60008351611424818460208801611a38565b835190830190611438818360208801611a38565b01949350505050565b6001600160a01b0391909116815260200190565b6001600160a01b0385811682528416602082015260408101839052608060608201819052600090611488908301846113e6565b9695505050505050565b901515815260200190565b600060208252610e7160208301846113e6565b60208082526032908201527f4552433732313a207472616e7366657220746f206e6f6e20455243373231526560408201527131b2b4bb32b91034b6b83632b6b2b73a32b960711b606082015260800190565b60208082526026908201527f4f776e61626c653a206e6577206f776e657220697320746865207a65726f206160408201526564647265737360d01b606082015260800190565b6020808252601c908201527f4552433732313a20746f6b656e20616c7265616479206d696e74656400000000604082015260600190565b60208082526024908201527f4552433732313a207472616e7366657220746f20746865207a65726f206164646040820152637265737360e01b606082015260800190565b60208082526019908201527f4552433732313a20617070726f766520746f2063616c6c657200000000000000604082015260600190565b6020808252602c908201527f4552433732313a206f70657261746f7220717565727920666f72206e6f6e657860408201526b34b9ba32b73a103a37b5b2b760a11b606082015260800190565b60208082526038908201527f4552433732313a20617070726f76652063616c6c6572206973206e6f74206f7760408201527f6e6572206e6f7220617070726f76656420666f7220616c6c0000000000000000606082015260800190565b6020808252602a908201527f4552433732313a2062616c616e636520717565727920666f7220746865207a65604082015269726f206164647265737360b01b606082015260800190565b60208082526029908201527f4552433732313a206f776e657220717565727920666f72206e6f6e657869737460408201526832b73a103a37b5b2b760b91b606082015260800190565b6020808252602e908201527f45524337323155524953746f726167653a2055524920736574206f66206e6f6e60408201526d32bc34b9ba32b73a103a37b5b2b760911b606082015260800190565b6020808252818101527f4552433732313a206d696e7420746f20746865207a65726f2061646472657373604082015260600190565b60208082526031908201527f45524337323155524953746f726167653a2055524920717565727920666f72206040820152703737b732bc34b9ba32b73a103a37b5b2b760791b606082015260800190565b6020808252602c908201527f4552433732313a20617070726f76656420717565727920666f72206e6f6e657860408201526b34b9ba32b73a103a37b5b2b760a11b606082015260800190565b6020808252818101527f4f776e61626c653a2063616c6c6572206973206e6f7420746865206f776e6572604082015260600190565b60208082526029908201527f4552433732313a207472616e73666572206f6620746f6b656e2074686174206960408201526839903737ba1037bbb760b91b606082015260800190565b6020808252602f908201527f4552433732314d657461646174613a2055524920717565727920666f72206e6f60408201526e3732bc34b9ba32b73a103a37b5b2b760891b606082015260800190565b60208082526021908201527f4552433732313a20617070726f76616c20746f2063757272656e74206f776e656040820152603960f91b606082015260800190565b60208082526031908201527f4552433732313a207472616e736665722063616c6c6572206973206e6f74206f6040820152701ddb995c881b9bdc88185c1c1c9bdd9959607a1b606082015260800190565b6020808252601d908201527f56616c75652073686f756c64206265206f76657220302e303520455448000000604082015260600190565b90815260200190565b60008219821115611a0857611a08611ace565b500190565b600082611a1c57611a1c611ae4565b500490565b600082821015611a3357611a33611ace565b500390565b60005b83811015611a53578181015183820152602001611a3b565b8381111561075b5750506000910152565b600281046001821680611a7857607f821691505b60208210811415611a9957634e487b7160e01b600052602260045260246000fd5b50919050565b6000600019821415611ab357611ab3611ace565b5060010190565b600082611ac957611ac9611ae4565b500690565b634e487b7160e01b600052601160045260246000fd5b634e487b7160e01b600052601260045260246000fd5b634e487b7160e01b600052604160045260246000fd5b6001600160e01b03198116811461093657600080fdfe68747470733a2f2f697066732e696f2f697066732f516d5954374745657339663779517738784b5a69594a31616b55376546704a3844656b565254727778444d745374a2646970667358221220f674393e696f33cc2af85c52ff112cf6e29bc2e326ac790daecc7a868cf55bae64736f6c63430008000033",
  "linkReferences": {},
  "deployedLinkReferences": {}
}